:1000000000308A006B2A0000FF00030E8301A1006C
:100010007F08A0000A08A8008A01A00E0408A20018
:100020007708A3007808A4007908A5007A08A6003C
:100030007B08A700831383128C308400001C2228C5
:100040000C184428220884002308F7002408F8002C
:100050002508F9002608FA002708FB0028088A006E
:10006000210E8300FF0E7F0E09000A108A100A116C
:100070008207EE342834CD346D342B346734E734C2
:100080002C34EF346F34AB340F08FA000E08F7004D
:100090000F087A02031D44287708DB3EB9007A086E
:1000A000BA000B3003180C30BA073A088F00390831
:1000B0008E000830A906291E7B28A91D6A28AD08D4
:1000C000031D6928AC0803196828AC033B30AD0058
:1000D0006A28AD03A9196E2885136F288517AC0807
:1000E000031D7828A9197628051177280515792880
:1000F000051105177E288513051105130C108A11AB
:10010000222836080A3C031CB60137080A3C031CA7
:10011000B7013608AA003708AB0000342914A91427
:100120000034051085100030660086012A08B600EC
:100130002B08B70081208E20852A18306500B53045
:1001400090000B308F00DB308E0083160C1483126E
:10015000862A3510291A351429123408AC002912C0
:1001600035182916003483169B019C131C141A0899
:100170008312B3003308633C031CB3013308AE00A1
:10018000013083169B009C131C141A088312AF00C5
:100190002F08B400A920AF080319D0283B30AD00C8
:1001A000872A8316051685158312882A291DE728B4
:1001B0008510291CE1282A083520B6008600051480
:1001C000E6280330F700F70BE328E628F5280510AA
:1001D000A91CF0282B083520B60086008514F528C8
:1001E0000330F700F70BF228F5280430A906003495
:1001F000D620B5013508133C031C04295330F70001
:10020000F70B0029B50AFA28D620B5013508133CAA
:10021000031C10295330F700F70B0C29B50A0629E7
:10022000B403B41B17293408003C031CF828D6205B
:1002300000342910A91000340930B300B31B2A2957
:100240003308B6003308B70081200F30B400F8201F
:10025000B3031E2919211E30B400F8208E208B2AEA
:10026000051A3729A9160230B400F8204829A91E1A
:100270004829A9122E082C07B300B400A920291A76
:100280004729AC0803194729AD080319AD0A2916F7
:100290008D2A8519502929170230B400F8205429D5
:1002A000291F54292913B00A8E2A3708F80136026B
:1002B00003185D293608F7006929F7010830B800EE
:1002C000B60DF70D370877020318F700F80DB80BD5
:1002D000602900343008013A03197529033A0319DB
:1002E0008A29013A0319A429BB292E08B6000A302D
:1002F000B70055217808B2002E08B6000A30B700C2
:1003000055217708B1002910A9192914A910291815
:10031000A9140C2A29143310A9193314A918A029D7
:10032000F7013318F7142908770602390319A029B1
:10033000B20A3208B6000A30B70055217708B20079
:10034000A9103318A9140C2AA9143310A9193314AD
:100350002918B7292908330601390319B729B10A21
:100360003108B6000A30B70055217708B1002910CE
:10037000331829140C2A8E203208B4000A30B50034
:10038000F701F801340803103518F707F70CF80CDB
:10039000B518F707F70CF80C3519F707F70CF80C38
:1003A000B519F707F70CF80C351AF707F70CF80C26
:1003B000B51AF707F70CF80C351BF707F70CF80C14
:1003C000B51BF707F70CF80C31087807AE00831659
:1003D0009B0183122E0883169A001C1583120B08AA
:1003E000F7008B13831655309D00AA309D009C1496
:1003F0009C18F8291C11770883128B04B00131086E
:10040000B6003208B70081206430B400F82019210A
:100410003230B400F820112A3108B6003208B70093
:100420008120922A33083B3C031C252A3308B6005E
:100430000A30B70055217808B5003308B6000A30F5
:10044000B70055217708B4002E2A3308B6003C3097
:10045000B70055217808B5000A30B4003408B6005A
:100460003508B70081200034AC08031D472AAD08C9
:10047000031D3D2A8E202912432A2910A919291467
:10048000A9102918A9142D08B30012224B2A8E2076
:100490002C08B3001222922A2C082F0203196A2A70
:1004A0002C08AF00013083169B0083122F0883169F
:1004B0009A001C1583120B08F7008B138316553016
:1004C0009D00AA309D009C149C18642A1C1177087A
:1004D00083128B04942A840183131F3083058316AF
:1004E0008E15073083129F002910A910AA01AB01B5
:1004F0002911A9112912AC01AD01AE01AF01B00162
:10050000A9122913B101B20191289D28B328D1283D
:10051000C0308B041C29291630294929B008031D35
:0C0520006A29342AD6204C2A8C2A630059
:0442000001000000B9
:02400E00303F41
:00000001FF
;PIC16F628A
